{
  "_format": "hh-sol-artifact-1",
  "contractName": "MerkleTree",
  "sourceName": "contracts/MerkleTree.sol",
  "abi": [
    {
      "inputs": [],
      "stateMutability": "nonpayable",
      "type": "constructor"
    },
    {
      "inputs": [
        {
          "internalType": "uint256",
          "name": "",
          "type": "uint256"
        }
      ],
      "name": "hashes",
      "outputs": [
        {
          "internalType": "uint256",
          "name": "",
          "type": "uint256"
        }
      ],
      "stateMutability": "view",
      "type": "function"
    },
    {
      "inputs": [],
      "name": "index",
      "outputs": [
        {
          "internalType": "uint256",
          "name": "",
          "type": "uint256"
        }
      ],
      "stateMutability": "view",
      "type": "function"
    },
    {
      "inputs": [
        {
          "internalType": "uint256",
          "name": "hashedLeaf",
          "type": "uint256"
        }
      ],
      "name": "insertLeaf",
      "outputs": [],
      "stateMutability": "nonpayable",
      "type": "function"
    },
    {
      "inputs": [],
      "name": "root",
      "outputs": [
        {
          "internalType": "uint256",
          "name": "",
          "type": "uint256"
        }
      ],
      "stateMutability": "view",
      "type": "function"
    },
    {
      "inputs": [
        {
          "internalType": "uint256[2]",
          "name": "a",
          "type": "uint256[2]"
        },
        {
          "internalType": "uint256[2][2]",
          "name": "b",
          "type": "uint256[2][2]"
        },
        {
          "internalType": "uint256[2]",
          "name": "c",
          "type": "uint256[2]"
        },
        {
          "internalType": "uint256[1]",
          "name": "input",
          "type": "uint256[1]"
        }
      ],
      "name": "verify",
      "outputs": [
        {
          "internalType": "bool",
          "name": "",
          "type": "bool"
        }
      ],
      "stateMutability": "view",
      "type": "function"
    },
    {
      "inputs": [
        {
          "internalType": "uint256[2]",
          "name": "a",
          "type": "uint256[2]"
        },
        {
          "internalType": "uint256[2][2]",
          "name": "b",
          "type": "uint256[2][2]"
        },
        {
          "internalType": "uint256[2]",
          "name": "c",
          "type": "uint256[2]"
        },
        {
          "internalType": "uint256[1]",
          "name": "input",
          "type": "uint256[1]"
        }
      ],
      "name": "verifyProof",
      "outputs": [
        {
          "internalType": "bool",
          "name": "r",
          "type": "bool"
        }
      ],
      "stateMutability": "view",
      "type": "function"
    }
  ],
  "bytecode": "0x608060405260036000806101000a81548160ff021916908360ff16021790555060008054906101000a900460ff1660026200003b919062000226565b60015560018054600262000050919062000363565b6200005c9190620003c4565b60025560006004553480156200007157600080fd5b5060025467ffffffffffffffff811115620000b5577f4e487b7100000000000000000000000000000000000000000000000000000000600052604160045260246000fd5b604051908082528060200260200182016040528015620000e45781602001602082028036833780820191505090505b5060039080519060200190620000fc9291906200015a565b5060005b6002548110156200014b576003600090806001815401808255809150506001900390600052602060002001600090919091909150558080620001429062000416565b91505062000100565b506000600581905550620004a0565b82805482825590600052602060002090810192821562000199579160200282015b82811115620001985782518255916020019190600101906200017b565b5b509050620001a89190620001ac565b5090565b5b80821115620001c7576000816000905550600101620001ad565b5090565b6000808291508390505b60018511156200021d57808604811115620001f557620001f462000464565b5b6001851615620002055780820291505b8081029050620002158562000493565b9450620001d5565b94509492505050565b60006200023382620003ff565b9150620002408362000409565b92506200026f7fffffffffffffffffffffffffffffffffffffffffffffffffffffffffffffffff848462000277565b905092915050565b6000826200028957600190506200035c565b816200029957600090506200035c565b8160018114620002b25760028114620002bd57620002f3565b60019150506200035c565b60ff841115620002d257620002d162000464565b5b8360020a915084821115620002ec57620002eb62000464565b5b506200035c565b5060208310610133831016604e8410600b84101617156200032d5782820a90508381111562000327576200032662000464565b5b6200035c565b6200033c8484846001620001cb565b9250905081840481111562000356576200035562000464565b5b81810290505b9392505050565b60006200037082620003ff565b91506200037d83620003ff565b9250817fffffffffffffffffffffffffffffffffffffffffffffffffffffffffffffffff0483118215151615620003b957620003b862000464565b5b828202905092915050565b6000620003d182620003ff565b9150620003de83620003ff565b925082821015620003f457620003f362000464565b5b828203905092915050565b6000819050919050565b600060ff82169050919050565b60006200042382620003ff565b91507fffffffffffffffffffffffffffffffffffffffffffffffffffffffffffffffff82141562000459576200045862000464565b5b600182019050919050565b7f4e487b7100000000000000000000000000000000000000000000000000000000600052601160045260246000fd5b60008160011c9050919050565b612c5b80620004b06000396000f3fe608060405234801561001057600080fd5b50600436106100625760003560e01c80632986c0e5146100675780632fa8ea6d1461008557806343753b4d146100b5578063501895ae146100e5578063b720243414610115578063ebf0c71714610131575b600080fd5b61006f61014f565b60405161007c9190612704565b60405180910390f35b61009f600480360381019061009a919061219b565b610155565b6040516100ac9190612609565b60405180910390f35b6100cf60048036038101906100ca919061219b565b610240565b6040516100dc9190612609565b60405180910390f35b6100ff60048036038101906100fa9190612229565b6106f4565b60405161010c9190612704565b60405180910390f35b61012f600480360381019061012a9190612229565b610718565b005b610139610a2a565b6040516101469190612704565b60405180910390f35b60045481565b6000803073ffffffffffffffffffffffffffffffffffffffff166343753b4d878787876040518563ffffffff1660e01b815260040161019794939291906125c2565b60206040518083038186803b1580156101af57600080fd5b505afa1580156101c3573d6000803e3d6000fd5b505050506040513d601f19601f820116820180604052508101906101e79190612200565b905080801561023557506005548360006001811061022e577f4e487b7100000000000000000000000000000000000000000000000000000000600052603260045260246000fd5b6020020151145b915050949350505050565b600061024a611e7c565b60405180604001604052808760006002811061028f577f4e487b7100000000000000000000000000000000000000000000000000000000600052603260045260246000fd5b60200201518152602001876001600281106102d3577f4e487b7100000000000000000000000000000000000000000000000000000000600052603260045260246000fd5b602002015181525081600001819052506040518060400160405280604051806040016040528088600060028110610333577f4e487b7100000000000000000000000000000000000000000000000000000000600052603260045260246000fd5b6020020151600060028110610371577f4e487b7100000000000000000000000000000000000000000000000000000000600052603260045260246000fd5b60200201518152602001886000600281106103b5577f4e487b7100000000000000000000000000000000000000000000000000000000600052603260045260246000fd5b60200201516001600281106103f3577f4e487b7100000000000000000000000000000000000000000000000000000000600052603260045260246000fd5b60200201518152508152602001604051806040016040528088600160028110610445577f4e487b7100000000000000000000000000000000000000000000000000000000600052603260045260246000fd5b6020020151600060028110610483577f4e487b7100000000000000000000000000000000000000000000000000000000600052603260045260246000fd5b60200201518152602001886001600281106104c7577f4e487b7100000000000000000000000000000000000000000000000000000000600052603260045260246000fd5b6020020151600160028110610505577f4e487b7100000000000000000000000000000000000000000000000000000000600052603260045260246000fd5b6020020151815250815250816020018190525060405180604001604052808560006002811061055d577f4e487b7100000000000000000000000000000000000000000000000000000000600052603260045260246000fd5b60200201518152602001856001600281106105a1577f4e487b7100000000000000000000000000000000000000000000000000000000600052603260045260246000fd5b602002015181525081604001819052506000600167ffffffffffffffff8111156105f4577f4e487b7100000000000000000000000000000000000000000000000000000000600052604160045260246000fd5b6040519080825280602002602001820160405280156106225781602001602082028036833780820191505090505b50905060005b60018110156106c75784816001811061066a577f4e487b7100000000000000000000000000000000000000000000000000000000600052603260045260246000fd5b60200201518282815181106106a8577f4e487b7100000000000000000000000000000000000000000000000000000000600052603260045260246000fd5b60200260200101818152505080806106bf906129c0565b915050610628565b5060006106d48284610a30565b14156106e5576001925050506106ec565b6000925050505b949350505050565b6003818154811061070457600080fd5b906000526020600020016000915090505481565b6001546004541061075e576040517f08c379a0000000000000000000000000000000000000000000000000000000008152600401610755906126c4565b60405180910390fd5b8060036004548154811061079b577f4e487b7100000000000000000000000000000000000000000000000000000000600052603260045260246000fd5b906000526020600020018190555060008060026004546107bb9190612a09565b146107d45760016004546107cf9190612945565b6107d8565b6004545b905060005b60008054906101000a900460ff1660ff168110156109b45773__$86e0c54df1042e28bf2dd20ccf184dc428$__6329a5f2f6604051806040016040528060038681548110610854577f4e487b7100000000000000000000000000000000000000000000000000000000600052603260045260246000fd5b9060005260206000200154815260200160036001876108739190612864565b815481106108aa577f4e487b7100000000000000000000000000000000000000000000000000000000600052603260045260246000fd5b90600052602060002001548152506040518263ffffffff1660e01b81526004016108d491906125a7565b60206040518083038186803b1580156108ec57600080fd5b505af4158015610900573d6000803e3d6000fd5b505050506040513d601f19601f820116820180604052508101906109249190612252565b600360015460028561093691906128ba565b6109409190612864565b81548110610977577f4e487b7100000000000000000000000000000000000000000000000000000000600052603260045260246000fd5b906000526020600020018190555060015460028361099591906128ba565b61099f9190612864565b915080806109ac906129c0565b9150506107dd565b50600360016002546109c69190612945565b815481106109fd577f4e487b7100000000000000000000000000000000000000000000000000000000600052603260045260246000fd5b906000526020600020015460058190555060046000815480929190610a21906129c0565b91905055505050565b60055481565b6000807f30644e72e131a029b85045b68181585d2833e84879b9709143e1f593f000000190506000610a60610cbb565b905080608001515160018651610a769190612864565b14610ab6576040517f08c379a0000000000000000000000000000000000000000000000000000000008152600401610aad90612624565b60405180910390fd5b60006040518060400160405280600081526020016000815250905060005b8651811015610c175783878281518110610b17577f4e487b7100000000000000000000000000000000000000000000000000000000600052603260045260246000fd5b602002602001015110610b5f576040517f08c379a0000000000000000000000000000000000000000000000000000000008152600401610b5690612664565b60405180910390fd5b610c0282610bfd8560800151600185610b789190612864565b81518110610baf577f4e487b7100000000000000000000000000000000000000000000000000000000600052603260045260246000fd5b60200260200101518a8581518110610bf0577f4e487b7100000000000000000000000000000000000000000000000000000000600052603260045260246000fd5b6020026020010151611131565b611280565b91508080610c0f906129c0565b915050610ad4565b50610c67818360800151600081518110610c5a577f4e487b7100000000000000000000000000000000000000000000000000000000600052603260045260246000fd5b6020026020010151611280565b9050610c9d610c79866000015161141b565b8660200151846000015185602001518587604001518b6040015189606001516114c0565b610cad5760019350505050610cb5565b600093505050505b92915050565b610cc3611eaf565b60405180604001604052807f2d4d9aa7e302d9df41749d5507949d05dbea33fbb16c643b22f599a2be6df2e281526020017f14bedd503c37ceb061d8ec60209fe345ce89830a19230301f076caff004d19268152508160000181905250604051806040016040528060405180604001604052807f0967032fcbf776d1afc985f88877f182d38480a653f2decaa9794cbc3bf3060c81526020017f0e187847ad4c798374d0d6732bf501847dd68bc0e071241e0213bc7fc13db7ab815250815260200160405180604001604052807f304cfbd1e08a704a99f5e847d93f8c3caafddec46b7a0d379da69a4d112346a781526020017f1739c1b1a457a8c7313123d24d2f9192f896b7c63eea05a9d57f06547ad0cec88152508152508160200181905250604051806040016040528060405180604001604052807f198e9393920d483a7260bfb731fb5d25f1aa493335a9e71297e485b7aef312c281526020017f1800deef121f1e76426a00665e5c4479674322d4f75edadd46debd5cd992f6ed815250815260200160405180604001604052807f090689d0585ff075ec9e99ad690c3395bc4b313370b38ef355acdadcd122975b81526020017f12c85ea5db8c6deb4aab71808dcb408fe3d1e7690c43d37b4ce6cc0166fa7daa8152508152508160400181905250604051806040016040528060405180604001604052807f0472136ae66fed5f82b9494dd91278bee2c0331aea9f01df030d940c2c0642ae81526020017f1e677beba1a49b24ebd3dce85cdb8aae5151607290d71e9e3cbbc995af8f4bc7815250815260200160405180604001604052807f2b9a7ec32058805990a72ff1a34a8cefd40932df1fe4d46e328e332789b6aedf81526020017f214db15edf8ea2493a63167348b66d21994ae29941b227cf4212a50a5fd46e2c8152508152508160600181905250600267ffffffffffffffff811115610fb0577f4e487b7100000000000000000000000000000000000000000000000000000000600052604160045260246000fd5b604051908082528060200260200182016040528015610fe957816020015b610fd6611ef6565b815260200190600190039081610fce5790505b50816080018190525060405180604001604052807f1b55d3eec99d68f9e3ca9c008f79372cc66893b982b31024225324b54b4fb54381526020017f0aa90c8f95db8ac4b196ecfd85f9867bb7d116319f6b5ddefd0732aabb569a3e8152508160800151600081518110611085577f4e487b7100000000000000000000000000000000000000000000000000000000600052603260045260246000fd5b602002602001018190525060405180604001604052807f0e82d9999199eea96c7fe08b68dbff6ad66cfc9a78067fde7ff24575fa2253fe81526020017f0db274bebbc0ee1776bacdbf028fee218ab57c641fd102739c4fdbe2486a42c48152508160800151600181518110611123577f4e487b7100000000000000000000000000000000000000000000000000000000600052603260045260246000fd5b602002602001018190525090565b611139611ef6565b611141611f10565b836000015181600060038110611180577f4e487b7100000000000000000000000000000000000000000000000000000000600052603260045260246000fd5b6020020181815250508360200151816001600381106111c8577f4e487b7100000000000000000000000000000000000000000000000000000000600052603260045260246000fd5b602002018181525050828160026003811061120c577f4e487b7100000000000000000000000000000000000000000000000000000000600052603260045260246000fd5b602002018181525050600060608360808460076107d05a03fa9050806000811461123557611237565bfe5b5080611278576040517f08c379a000000000000000000000000000000000000000000000000000000000815260040161126f90612644565b60405180910390fd5b505092915050565b611288611ef6565b611290611f32565b8360000151816000600481106112cf577f4e487b7100000000000000000000000000000000000000000000000000000000600052603260045260246000fd5b602002018181525050836020015181600160048110611317577f4e487b7100000000000000000000000000000000000000000000000000000000600052603260045260246000fd5b60200201818152505082600001518160026004811061135f577f4e487b7100000000000000000000000000000000000000000000000000000000600052603260045260246000fd5b6020020181815250508260200151816003600481106113a7577f4e487b7100000000000000000000000000000000000000000000000000000000600052603260045260246000fd5b602002018181525050600060608360c08460066107d05a03fa905080600081146113d0576113d2565bfe5b5080611413576040517f08c379a000000000000000000000000000000000000000000000000000000000815260040161140a906126a4565b60405180910390fd5b505092915050565b611423611ef6565b60007f30644e72e131a029b85045b68181585d97816a916871ca8d3c208c16d87cfd47905060008360000151148015611460575060008360200151145b156114845760405180604001604052806000815260200160008152509150506114bb565b6040518060400160405280846000015181526020018285602001516114a99190612a09565b836114b49190612945565b8152509150505b919050565b600080600467ffffffffffffffff811115611504577f4e487b7100000000000000000000000000000000000000000000000000000000600052604160045260246000fd5b60405190808252806020026020018201604052801561153d57816020015b61152a611ef6565b8152602001906001900390816115225790505b5090506000600467ffffffffffffffff811115611583577f4e487b7100000000000000000000000000000000000000000000000000000000600052604160045260246000fd5b6040519080825280602002602001820160405280156115bc57816020015b6115a9611f54565b8152602001906001900390816115a15790505b5090508a826000815181106115fa577f4e487b7100000000000000000000000000000000000000000000000000000000600052603260045260246000fd5b60200260200101819052508882600181518110611640577f4e487b7100000000000000000000000000000000000000000000000000000000600052603260045260246000fd5b60200260200101819052508682600281518110611686577f4e487b7100000000000000000000000000000000000000000000000000000000600052603260045260246000fd5b602002602001018190525084826003815181106116cc577f4e487b7100000000000000000000000000000000000000000000000000000000600052603260045260246000fd5b60200260200101819052508981600081518110611712577f4e487b7100000000000000000000000000000000000000000000000000000000600052603260045260246000fd5b60200260200101819052508781600181518110611758577f4e487b7100000000000000000000000000000000000000000000000000000000600052603260045260246000fd5b6020026020010181905250858160028151811061179e577f4e487b7100000000000000000000000000000000000000000000000000000000600052603260045260246000fd5b602002602001018190525083816003815181106117e4577f4e487b7100000000000000000000000000000000000000000000000000000000600052603260045260246000fd5b60200260200101819052506117f98282611809565b9250505098975050505050505050565b6000815183511461184f576040517f08c379a000000000000000000000000000000000000000000000000000000000815260040161184690612684565b60405180910390fd5b600083519050600060068261186491906128eb565b905060008167ffffffffffffffff8111156118a8577f4e487b7100000000000000000000000000000000000000000000000000000000600052604160045260246000fd5b6040519080825280602002602001820160405280156118d65781602001602082028036833780820191505090505b50905060005b83811015611dbb5786818151811061191d577f4e487b7100000000000000000000000000000000000000000000000000000000600052603260045260246000fd5b60200260200101516000015182600060068461193991906128eb565b6119439190612864565b8151811061197a577f4e487b7100000000000000000000000000000000000000000000000000000000600052603260045260246000fd5b6020026020010181815250508681815181106119bf577f4e487b7100000000000000000000000000000000000000000000000000000000600052603260045260246000fd5b6020026020010151602001518260016006846119db91906128eb565b6119e59190612864565b81518110611a1c577f4e487b7100000000000000000000000000000000000000000000000000000000600052603260045260246000fd5b602002602001018181525050858181518110611a61577f4e487b7100000000000000000000000000000000000000000000000000000000600052603260045260246000fd5b602002602001015160000151600060028110611aa6577f4e487b7100000000000000000000000000000000000000000000000000000000600052603260045260246000fd5b6020020151826002600684611abb91906128eb565b611ac59190612864565b81518110611afc577f4e487b7100000000000000000000000000000000000000000000000000000000600052603260045260246000fd5b602002602001018181525050858181518110611b41577f4e487b7100000000000000000000000000000000000000000000000000000000600052603260045260246000fd5b602002602001015160000151600160028110611b86577f4e487b7100000000000000000000000000000000000000000000000000000000600052603260045260246000fd5b6020020151826003600684611b9b91906128eb565b611ba59190612864565b81518110611bdc577f4e487b7100000000000000000000000000000000000000000000000000000000600052603260045260246000fd5b602002602001018181525050858181518110611c21577f4e487b7100000000000000000000000000000000000000000000000000000000600052603260045260246000fd5b602002602001015160200151600060028110611c66577f4e487b7100000000000000000000000000000000000000000000000000000000600052603260045260246000fd5b6020020151826004600684611c7b91906128eb565b611c859190612864565b81518110611cbc577f4e487b7100000000000000000000000000000000000000000000000000000000600052603260045260246000fd5b602002602001018181525050858181518110611d01577f4e487b7100000000000000000000000000000000000000000000000000000000600052603260045260246000fd5b602002602001015160200151600160028110611d46577f4e487b7100000000000000000000000000000000000000000000000000000000600052603260045260246000fd5b6020020151826005600684611d5b91906128eb565b611d659190612864565b81518110611d9c577f4e487b7100000000000000000000000000000000000000000000000000000000600052603260045260246000fd5b6020026020010181815250508080611db3906129c0565b9150506118dc565b50611dc4611f7a565b6000602082602086026020860160086107d05a03fa90508060008114611de957611deb565bfe5b5080611e2c576040517f08c379a0000000000000000000000000000000000000000000000000000000008152600401611e23906126e4565b60405180910390fd5b600082600060018110611e68577f4e487b7100000000000000000000000000000000000000000000000000000000600052603260045260246000fd5b602002015114159550505050505092915050565b6040518060600160405280611e8f611ef6565b8152602001611e9c611f54565b8152602001611ea9611ef6565b81525090565b6040518060a00160405280611ec2611ef6565b8152602001611ecf611f54565b8152602001611edc611f54565b8152602001611ee9611f54565b8152602001606081525090565b604051806040016040528060008152602001600081525090565b6040518060600160405280600390602082028036833780820191505090505090565b6040518060800160405280600490602082028036833780820191505090505090565b6040518060400160405280611f67611f9c565b8152602001611f74611f9c565b81525090565b6040518060200160405280600190602082028036833780820191505090505090565b6040518060400160405280600290602082028036833780820191505090505090565b6000611fd1611fcc84612744565b61271f565b90508082856040860282011115611fe757600080fd5b60005b858110156120175781611ffd8882612135565b845260208401935060408301925050600181019050611fea565b5050509392505050565b600061203461202f8461276a565b61271f565b9050808285602086028201111561204a57600080fd5b60005b8581101561207a57816120608882612171565b84526020840193506020830192505060018101905061204d565b5050509392505050565b600061209761209284612790565b61271f565b905080828560208602820111156120ad57600080fd5b60005b858110156120dd57816120c38882612171565b8452602084019350602083019250506001810190506120b0565b5050509392505050565b600082601f8301126120f857600080fd5b6002612105848285611fbe565b91505092915050565b600082601f83011261211f57600080fd5b600161212c848285612021565b91505092915050565b600082601f83011261214657600080fd5b6002612153848285612084565b91505092915050565b60008151905061216b81612bf7565b92915050565b60008135905061218081612c0e565b92915050565b60008151905061219581612c0e565b92915050565b60008060008061012085870312156121b257600080fd5b60006121c087828801612135565b94505060406121d1878288016120e7565b93505060c06121e287828801612135565b9250506101006121f48782880161210e565b91505092959194509250565b60006020828403121561221257600080fd5b60006122208482850161215c565b91505092915050565b60006020828403121561223b57600080fd5b600061224984828501612171565b91505092915050565b60006020828403121561226457600080fd5b600061227284828501612186565b91505092915050565b60006122878383612371565b60408301905092915050565b600061229f838361257a565b60208301905092915050565b60006122b78383612598565b60208301905092915050565b6122cc816127d4565b6122d6818461281c565b92506122e1826127b6565b8060005b838110156123125781516122f9878261227b565b9650612304836127f5565b9250506001810190506122e5565b505050505050565b612323816127df565b61232d8184612827565b9250612338826127c0565b8060005b838110156123695781516123508782612293565b965061235b83612802565b92505060018101905061233c565b505050505050565b61237a816127ea565b6123848184612832565b925061238f826127ca565b8060005b838110156123c05781516123a78782612293565b96506123b28361280f565b925050600181019050612393565b505050505050565b6123d1816127ea565b6123db818461283d565b92506123e6826127ca565b8060005b838110156124175781516123fe8782612293565b96506124098361280f565b9250506001810190506123ea565b505050505050565b612428816127ea565b6124328184612848565b925061243d826127ca565b8060005b8381101561246e57815161245587826122ab565b96506124608361280f565b925050600181019050612441565b505050505050565b61247f81612979565b82525050565b6000612492601283612853565b915061249d82612ad8565b602082019050919050565b60006124b5601283612853565b91506124c082612b01565b602082019050919050565b60006124d8601f83612853565b91506124e382612b2a565b602082019050919050565b60006124fb601683612853565b915061250682612b53565b602082019050919050565b600061251e601283612853565b915061252982612b7c565b602082019050919050565b6000612541601383612853565b915061254c82612ba5565b602082019050919050565b6000612564601583612853565b915061256f82612bce565b602082019050919050565b61258381612985565b82525050565b61259281612985565b82525050565b6125a181612985565b82525050565b60006040820190506125bc600083018461241f565b92915050565b6000610120820190506125d860008301876123c8565b6125e560408301866122c3565b6125f260c08301856123c8565b61260061010083018461231a565b95945050505050565b600060208201905061261e6000830184612476565b92915050565b6000602082019050818103600083015261263d81612485565b9050919050565b6000602082019050818103600083015261265d816124a8565b9050919050565b6000602082019050818103600083015261267d816124cb565b9050919050565b6000602082019050818103600083015261269d816124ee565b9050919050565b600060208201905081810360008301526126bd81612511565b9050919050565b600060208201905081810360008301526126dd81612534565b9050919050565b600060208201905081810360008301526126fd81612557565b9050919050565b60006020820190506127196000830184612589565b92915050565b600061272961273a565b9050612735828261298f565b919050565b6000604051905090565b600067ffffffffffffffff82111561275f5761275e612a98565b5b602082029050919050565b600067ffffffffffffffff82111561278557612784612a98565b5b602082029050919050565b600067ffffffffffffffff8211156127ab576127aa612a98565b5b602082029050919050565b6000819050919050565b6000819050919050565b6000819050919050565b600060029050919050565b600060019050919050565b600060029050919050565b6000602082019050919050565b6000602082019050919050565b6000602082019050919050565b600081905092915050565b600081905092915050565b600081905092915050565b600081905092915050565b600081905092915050565b600082825260208201905092915050565b600061286f82612985565b915061287a83612985565b9250827fffffffffffffffffffffffffffffffffffffffffffffffffffffffffffffffff038211156128af576128ae612a3a565b5b828201905092915050565b60006128c582612985565b91506128d083612985565b9250826128e0576128df612a69565b5b828204905092915050565b60006128f682612985565b915061290183612985565b9250817fffffffffffffffffffffffffffffffffffffffffffffffffffffffffffffffff048311821515161561293a57612939612a3a565b5b828202905092915050565b600061295082612985565b915061295b83612985565b92508282101561296e5761296d612a3a565b5b828203905092915050565b60008115159050919050565b6000819050919050565b61299882612ac7565b810181811067ffffffffffffffff821117156129b7576129b6612a98565b5b80604052505050565b60006129cb82612985565b91507fffffffffffffffffffffffffffffffffffffffffffffffffffffffffffffffff8214156129fe576129fd612a3a565b5b600182019050919050565b6000612a1482612985565b9150612a1f83612985565b925082612a2f57612a2e612a69565b5b828206905092915050565b7f4e487b7100000000000000000000000000000000000000000000000000000000600052601160045260246000fd5b7f4e487b7100000000000000000000000000000000000000000000000000000000600052601260045260246000fd5b7f4e487b7100000000000000000000000000000000000000000000000000000000600052604160045260246000fd5b6000601f19601f8301169050919050565b7f76657269666965722d6261642d696e7075740000000000000000000000000000600082015250565b7f70616972696e672d6d756c2d6661696c65640000000000000000000000000000600082015250565b7f76657269666965722d6774652d736e61726b2d7363616c61722d6669656c6400600082015250565b7f70616972696e672d6c656e677468732d6661696c656400000000000000000000600082015250565b7f70616972696e672d6164642d6661696c65640000000000000000000000000000600082015250565b7f4d65726b6c6520747265652069732066756c6c00000000000000000000000000600082015250565b7f70616972696e672d6f70636f64652d6661696c65640000000000000000000000600082015250565b612c0081612979565b8114612c0b57600080fd5b50565b612c1781612985565b8114612c2257600080fd5b5056fea2646970667358221220fde2a9f33d02cfe5bd2316c9264b0a1ff9f7a591c84a7ff7c60660d326871c1164736f6c63430008040033",
  "linkReferences": {
    "contracts/Poseidon.sol": {
      "PoseidonT3": [
        {
          "length": 20,
          "start": 3239
        }
      ]
    }
  },
  "deployedLinkReferences": {
    "contracts/Poseidon.sol": {
      "PoseidonT3": [
        {
          "length": 20,
          "start": 2039
        }
      ]
    }
  }
}